:020000040800F2
:1000000078E00020A501000855300008EB28000822
:10001000E12E00089F030008DB3F000800000000FD
:100020000000000000000000000000002738000869
:10003000E5030008000000005930000829380008D6
:10004000BF010008BF010008BF010008BF01000890
:10005000BF010008BF010008BF010008BF01000880
:10006000BF010008BF010008BF010008BF01000870
:10007000BF010008BF010008BF010008A503000878
:10008000BF010008BF010008BF010008BF01000850
:10009000BF010008BF010008BF010008BF01000840
:1000A000BF010008BF010008BF010008BF01000830
:1000B000BF0100080000000000000000BF010008B0
:1000C000BF010008BF010008BF010008BF01000810
:1000D000BF010008153F0008BF010008BF0100086C
:1000E000BF010008BF010008000000000000000080
:1000F0000000000000000000000000000000000000
:1001000000000000BF01000800000000BF0100085F
:100110000000000000000000BF01000809390008CD
:10012000BF010008BF010008BF010008BF010008AF
:10013000BF010008000000000000000000000000F7
:10014000BF010008BF010008BF0100080000000057
:10015000BF010008BF010008BF010008BF0100087F
:10016000BF010008BF010008BF0100080000000037
:10017000BF010008BF0100080000000000000000EF
:10018000BF010008BF010008BF010008DFF810D060
:1001900000F0C8F80048004705130308AFF30080DB
:1001A00078E000200648804706480047FEE7FEE763
:1001B000FEE7FEE7FEE7FEE7FEE7FEE7FEE7FEE717
:1001C000C13800088D0100082DE9F05F05460020C8
:1001D00092469B4688460646814640241BE02846B8
:1001E00041464746224600F08DF853465A46C01A0B
:1001F000914110D311461846224600F074F82D1A8A
:1002000067EB01084F4622460120002100F06BF801
:1002100017EB00094E41201EA4F10104DFDC484623
:1002200031462A46434600F000B830BCBDE8C09FC6
:1002300040EA01039B0703D009E008C9121F08C068
:10024000042AFAD203E011F8013B00F8013B521EE8
:10025000F9D27047D2B201E000F8012B491EFBD25F
:1002600070470022F6E710B513460A4604461946C1
:10027000FFF7F0FF204610BD10B5044604E00B78F0
:1002800000F8013B03B1491C521EF8D2204610BDB4
:10029000421C10F8011B0029FBD1801A704710B5D1
:1002A000002200E0521C835C8C5CA34201D1002B35
:1002B000F8D1D8B2E1B2401A10BD30B504460020E2
:1002C000034600E05B1C934203D2E05CCD5C401B24
:1002D000F8D030BD034611F8012B00F8012B002A9D
:1002E000F9D118467047202A04DB203A00FA02F1BF
:1002F000002070479140C2F1200320FA03F3194314
:1003000090407047202A04DB203A21FA02F00021B5
:10031000704721FA02F3D040C2F120029140084315
:1003200019467047064C074D06E0E06840F00103AF
:1003300094E8070098471034AC42F6D3FFF72AFF41
:10034000E4B4030804B5030870B58C1810F8015B19
:1003500015F0070301D110F8013B2A1106D110F85E
:10036000012B03E010F8016B01F8016B5B1EF9D162
:100370002B0705D40023521E0DD401F8013BFAE7E8
:1003800010F8013BCB1A921C03E013F8015B01F853
:10039000015B521EF9D5A142D8D3002070BD00BF29
:1003A000FEE7000010B5024800F0AFF810BD0000F5
:1003B0008413002030B590F8444004F01C0501245B
:1003C000AC40056C6C60046863608468102C04D1D8
:1003D0000468A2600468E16003E00468A160046846
:1003E000E26030BD704772B600BFFEE730B504462C
:1003F0000D4600222946204600F002F830BD0000DC
:10040000F0B50346012500241148407A01281CDA82
:1004100000200F4E767A0E4FB8553846467A001DAA
:1004200040F82630001F467A083082553E46707AE2
:10043000461C7E72044604F1300008703A20487071
:100440002F2088700020C87000252846F0BD0000CD
:10045000A43900200146002291F82500022808D086
:100460000420C86300BF002081F8240000BF0120E1
:1004700070470868006820F00E000B681860086874
:10048000006820F001000B68186091F8440000F04B
:100490001C03012098400B6C5860012081F8250056
:1004A00000BF002081F8240000BF1046E0E770B5CF
:1004B0000446002594F82500022803D00420E063B8
:1004C000012520E02068006820F00E002168086007
:1004D0002068006820F001002168086094F844005A
:1004E00000F01C0101208840216C4860012084F844
:1004F000250000BF002084F8240000BFA06B10B1CD
:100500002046A16B8847284670BD70B50446206C14
:1005100005682068066894F8440000F01C01042077
:1005200088402840E0B106F00400C8B120680068A7
:1005300000F0200028B92068006820F0040021683D
:10054000086094F8440000F01C0104208840216CED
:100550004860206B002856D02046216B884752E027
:1005600094F8440000F01C0102208840284018B391
:1005700006F0020000B32068006800F0200040B9D7
:100580002068006820F00A0021680860012084F8D3
:10059000250094F8440000F01C0102208840216CE2
:1005A000486000BF002084F8240000BFE06A50B318
:1005B0002046E16A884726E094F8440000F01C01D8
:1005C000082088402840F0B106F00800D8B1206823
:1005D000006820F00E002168086094F8440000F0E4
:1005E0001C0101208840216C48600120E06384F8F0
:1005F000250000BF002084F8240000BF606B10B10C
:100600002046616B884770BD10B5014609B90120CD
:1006100010BD3E4B086898420BD23D4B0868C01A8B
:100620001423B0FBF3F080004864394808380864AC
:100630000AE0364B0868C01A1423B0FBF3F08000C0
:100640004864324808380864022081F825000868A8
:10065000026847F6F0708243D1E9020318430B6940
:1006600018434B6918438B691843CB6918430B6ACD
:1006700018430243086802608868B0F5804F3AD09A
:10068000234B083B086C98421BD1D0F8A80091F886
:10069000443003F01C040F23A34098431C4BA033A9
:1006A000186091F8443003F01C0348689840184BD8
:1006B000083BD3F8A8301843154B083BC3F8A800F3
:1006C00019E01248A030006891F8443003F01C048F
:1006D0000F23A34098430D4BA033186091F844308A
:1006E00003F01C0348689840084BA0331B6818436C
:1006F000064BA03318600020C863012081F8250054
:10070000002081F8240000BF82E7000008040240B6
:10071000080002402DE9F04104460D4616461F46EA
:100720004FF0000800BF94F82400012802D10220F5
:10073000BDE8F081012084F8240000BF94F8250072
:1007400001282CD1022084F825000020E0632068D5
:10075000006820F00100216808603B4632462946C7
:100760002046FFF727FE206B30B12068006840F07C
:100770000E00216808600BE02068006820F004008B
:10078000216808602068006840F00A00216808605D
:100790002068006840F001002168086006E000BFA2
:1007A000002084F8240000BF4FF002084046BFE755
:1007B00070B5044600F0FAF806462546681C10B1EC
:1007C00004480078054400BF00F0F0F8801BA84200
:1007D000FAD370BD0800002078B503460022CBE0B4
:1007E000012696400D6805EA0604002C72D04D687B
:1007F000012D08D04D68022D05D04D68112D02D075
:100800004D68122D13D1986856000325B540A843B2
:100810005600CD68B540284398605868012595403A
:10082000A8430D79C5F30015954028435860D86852
:1008300056000325B540A84356008D68B5402843AF
:10084000D8604D68022D02D04D68122D13D1D60804
:1008500003F1200555F826005507EE0E0F25B5408B
:10086000A8435607F60E0D69B5402843D60803F194
:10087000200545F82600186856000325B540A84312
:100880000D7905F003055600B540284318604D6802
:1008900005F08055B5F1805F6DD100BF394D2D6EEB
:1008A00045F00105374E356635462D6E05F00105DC
:1008B000009500BF00BF4FEAB635960855F82600F0
:1008C00095072E0F0F25B540A843B3F1904F02D1E5
:1008D000002515E04FE02C4DAB4201D101250FE082
:1008E0002A4DAB4201D102250AE0294DAB4201D18C
:1008F000032505E0274DAB4201D1042500E0072583
:100900009607360FB5402843234D960845F8260034
:10091000224D2868A0434D6805F48035B5F5803F29
:1009200000D120431D4D28602D1D2868A0434D682F
:1009300005F40035B5F5003F00D12043174D2D1DBE
:1009400028602D1D2868A0434D6805F48015B5F575
:10095000801F00D12043114D083528602D1D2868C7
:10096000A0434D6805F40015B5F5001F00D12043E4
:100970000A4D0C352860521C0D68D540002D7FF4BF
:100980002FAF78BD00100240000400480008004866
:10099000000C00480010004808000140000401401D
:1009A0000AB1816100E0816270470000014800687F
:1009B00070470000000000200348006803490978E0
:1009C000084401490860704700000020080000202A
:1009D00010B50024032000F0ADF8002000F008F866
:1009E00008B1012401E000F02FF8204610BD0000FE
:1009F00070B50446002511480078D8B10F4800783A
:100A00004FF47A71B1FBF0F00D490968B1FBF0F6D3
:100A1000304601F037FB58B9102C07D2002221468E
:100A2000501E00F045F80748046004E0012502E08C
:100A3000012500E00125284670BD000008000020C7
:100A40000C0000200400002008B500BF0D48006E17
:100A500040F001000B4908660846006E00F00100F6
:100A6000009000BF00BF00BF0846806D40F080507E
:100A700088650846806D00F08050009000BF00BF80
:100A800008BD0000001002400146084600280DDBAA
:100A900000BF00BF00F01F0301229A4043099B00E2
:100AA00003F1E023C3F8002100BF00BF00BF70477F
:100AB0002DE9F05F80460D461646002703F036FB11
:100AC000074639462A46334601F00700C0F1070AB7
:100AD000BAF1040F02D94FF0040A01E0C0F1070A8D
:100AE000D14600F1040ABAF1070F02D24FF0000A12
:100AF00001E0A0F1030AD4464FF0010A0AFA09FA0C
:100B0000AAF1010A0AEA020A0AFA0CFA4FF0010BEA
:100B10000BFA0CFBABF1010B0BEA030B4AEA0B04DB
:100B20002146404603F00AFB00F000B830BCBDE8A7
:100B3000C09F000000BF00F00702064B19684FF687
:100B4000FF031940044B0B4343EA0221014B196098
:100B500000BF70470CED00E00000FA050246B2F558
:100B6000007F2AD11D48006800F4C060B0F5007F06
:100B700032D01A48006820F4C06040F40070174B6F
:100B800018601748006832235843164BB0FBF3F047
:100B9000411C00E0491E1148406900F48060B0F536
:100BA000806F01D10029F5D10C48406900F48060C4
:100BB000B0F5806F10D1032070470848006800F43A
:100BC000C060B0F5806F07D00448006820F4C060B2
:100BD00040F48060014B18600020EDE70070004099
:100BE0000C00002040420F000248006800F4C06082
:100BF00070470000007000402DE9F84304460D46A0
:100C00001746FFF7D3FE8046A86900B100BFE86928
:100C100000B100BF286A00B100BF00BF94F84000D7
:100C2000012802D10220BDE8F883012084F84000A9
:100C300000BF94F84100012828D100206064022000
:100C400084F841004346002220212046009702F00C
:100C50003FFB0646DEB900222946204602F0FDF998
:100C6000686A78B94346012202212046009702F0C3
:100C70002FFB06465EB902202168C860012084F877
:100C8000410004E0012084F8410000E0022600BF9A
:100C9000002084F8400000BF3046C4E7F8B50446A1
:100CA000FFF784FE06460CB90120F8BD206A4028F3
:100CB00000D000BF94F8410050B9002084F84000F3
:100CC000204600F04BF841F28831204600F0F9F858
:100CD0002068006820F47061A068401E41EA00208E
:100CE00021680860A06C3346002220210090204635
:100CF00002F0EEFA054635BB2179E06840EA016072
:100D0000E1690843216A084321680968114A1140D2
:100D1000084321680860208A616941EA0040A169AE
:100D20000843216849680C4A11400843216848601B
:100D30002068006840F001002168086000206064BD
:100D4000012084F8410000BF002084F8400000BF6B
:100D50002846AAE72FFFFF00FEF8E0FF10B586B097
:100D60000446142101A8FFF77CFA1849206888423C
:100D700029D100BF1648006D40F480701449086501
:100D80000846006D00F48070009000BF00BF00BFF7
:100D90000846C06C40F00200C8640846C06C00F011
:100DA0000200009000BF00BF40F603400190022007
:100DB000029000200390032004900A20059001A9CE
:100DC0000448FFF709FD06B010BD0000001000A0A8
:100DD00000100240000400482DE9F84F04460E467A
:100DE00017460025FFF7E2FD80462068D0F81890EE
:100DF000206800F1200A00BF94F84000012802D1C9
:100E0000022000F05BB8012084F8400000BF94F895
:100E1000410001284AD100206064002E40D02220E9
:100E200084F8410020680069401CA06320680069C4
:100E3000401C606326632068406920F0406040F0F9
:100E40008060216848612068C0F8189013E043462C
:100E5000012206212046009702F03AFA054605B124
:100E60000CE09AF80000216B0870206B401C206396
:100E7000A06B401EA063A06B0028E8D100BF5DB945
:100E80004346012202212046009702F021FA05463E
:100E900015B902202168C860012084F8410006E0ED
:100EA000606C40F008006064012500E0022500BF8E
:100EB000002084F8400000BF2846A2E718BCBDE827
:100EC000E08F816470472DE9F84304460E461746CB
:100ED0000025FFF76BFD8046206800F1200900BF68
:100EE00094F84000012802D10220BDE8F8830120D7
:100EF00084F8400000BF94F84100012845D100204B
:100F00006064002E3BD0122084F841002068006904
:100F1000401CE06220680069401CA0626662206894
:100F2000406920F040602168486113E04346012297
:100F300004212046009702F0CBF9054605B10CE0EC
:100F4000606A007889F80000606A401C6062E06AAC
:100F5000401EE062E06A0028E8D100BF5DB9434668
:100F6000012202212046009702F0B2F9054615B988
:100F700002202168C860012084F8410006E0606C0E
:100F800040F008006064012500E0022500BF002059
:100F900084F8400000BF2846A7E700002DE9F84389
:100FA00004460025A846208800F40060B0F5006FD4
:100FB00026D1606C68B1B0F5000F03D0B0F5400FDA
:100FC0000ED10CE0D548C06840F48030D349C860E9
:100FD00008E00021201D02F0A1F9054602E001E031
:100FE000012500BF00BF55B9CC488830006820F407
:100FF0004000616C0843C949C1F8880000E0A84678
:10100000206800F40030B0F5003F75D14FF00009C2
:10101000C248806D012121EA107078B100BFBF483D
:10102000806D40F08050BD4988650846806D00F0B5
:101030008050009000BF00BF4FF00109B848006821
:1010400040F48070B6490860FFF7B0FC074606E040
:10105000FFF7ACFCC01B022801D9032505E0B0480E
:10106000006800F480700028F2D000BF7DBBAB4860
:101070009030006800F44076CEB1A06DB04216D03A
:10108000A6489030006820F44076A448D0F890003C
:1010900040F48030A149C1F890000846D0F8900093
:1010A00020F48030C1F890000846C0F8906006F047
:1010B0000100A8B1FFF77AFC074609E0FFF776FCCC
:1010C000C01B41F28831884202D9032507E016E0AF
:1010D00092489030006800F002000028EED000BF77
:1010E0005DB98E489030006820F44070A16D0843CF
:1010F0008A49C1F8900003E00CE0A84600E0A84649
:10110000B9F1010F05D18548806D20F080508349E9
:10111000886500BF207800F0010048B17F48883022
:10112000006820F00300216A08437C49C1F8880068
:10113000207800F00200022809D178488830006841
:1011400020F00C00616A08437449C1F888002078D7
:1011500000F00400042809D170488830006820F0AD
:101160003000A16A08436D49C1F88800207800F07A
:101170002000202809D169488830006820F44060A8
:10118000E16A08436549C1F88800208800F40070CE
:10119000B0F5007F09D161488830006820F4402014
:1011A000E16B08435D49C1F88800208800F4806045
:1011B000B0F5806F09D159488830006820F440109C
:1011C000216C08435549C1F88800207800F04000A0
:1011D000402809D151488830006820F44050216BE4
:1011E00008434E49C1F88800207800F0800080282C
:1011F00009D14A488830006820F44040616B0843B8
:101200004649C1F88800208800F48070B0F5807FDE
:1012100009D142488830006820F44030A16B08436F
:101220003E49C1F88800206800F40020B0F5002F86
:101230001FD13A488830006820F04060A16C084314
:10124000364988310860A06CB0F1006F06D1334890
:10125000C06840F480103149C8600AE0A06CB0F169
:10126000806F06D10121201D02F058F8054605B116
:10127000A846206800F48020B0F5802F1FD12748B1
:101280008830006820F04060E16C084323498831D1
:101290000860E06CB0F1006F06D12048C06840F4EF
:1012A00080101E49C8600AE0E06CB0F1806F06D182
:1012B0000121201D02F032F8054605B1A84620881C
:1012C00000F48040B0F5804F14D114488830006895
:1012D00020F04050216D0843104988310860206D8E
:1012E000B0F1805F06D10221201D02F017F80546FB
:1012F00005B1A846208800F40040B0F5004F09D1A0
:1013000006488830006820F08040616D084303493A
:10131000C1F888004046BDE8F88300000010024094
:10132000007000402DE9F04104460D4614B901203B
:10133000BDE8F0815548006800F00700A8420ED2D1
:101340005248006820F007002843504908600846CA
:10135000006800F00700A84201D00120E8E72078EB
:1013600000F00100002840D06068032806D14848FA
:10137000006800F00070D8B90120D9E76068022841
:1013800006D14348006800F4003088B90120CFE757
:10139000606830B93E48006800F0020040B90120A2
:1013A000C6E73B48006800F4806008B90120BFE749
:1013B0003748806820F0030061680843344988603A
:1013C000FFF7F4FA064608E0FFF7F0FA801B41F257
:1013D0008831884201D90320AAE72D48806800F0AF
:1013E0000C006168B0EB810FEED1207800F00200B4
:1013F000022807D12648806820F0F000A168084341
:10140000234988602148006800F00700A8420ED9EF
:101410001E48006820F0070028431C490860084661
:10142000006800F00700A84201D0012080E7207882
:1014300000F00400042807D11548806820F4E0601B
:10144000E168084312498860207800F00800082805
:1014500008D10F48806820F46050216940EAC1003B
:101460000B49886000F046F809498968C1F3031107
:10147000084A515C01F01F01C8400749086007484D
:101480000068FFF7B5FA0746384651E700200240EA
:1014900000100240347603080C00002004000020F5
:1014A00001480068704700000C00002000B5FFF7FD
:1014B000F7FF05498968C1F30221044A515C01F034
:1014C0001F01C84000BD0000001002404476030820
:1014D00000B5FFF7E5FF05498968C1F3C221044A59
:1014E000515C01F01F01C84000BD00000010024027
:1014F00044760308F0B500230020DFF8D4C0DCF800
:1015000008C00CF00C01DFF8C8C0DCF80CC00CF00F
:10151000030719B10C291ED1012F1CD1DFF8B0C06F
:10152000DCF800C00CF0080CBCF1000F06D1DFF8AD
:10153000A0C0DCF894C0CCF3032305E0DFF890C032
:10154000DCF800C0CCF30313DFF888C05CF823306C
:1015500041B9184606E0042901D11F4802E00829D4
:1015600000D11E480C2932D1DFF864C0DCF80CC071
:101570000CF00304012C09D0022C02D0032C04D15E
:1015800001E0154A04E0154A02E000BF1A4600BF18
:1015900000BFDFF83CC0DCF80CC0CCF3021C0CF13F
:1015A0000106DFF82CC0DCF80CC0CCF3062C0CFBD9
:1015B00002FCBCFBF6F2DFF818C0DCF80CC0CCF380
:1015C000416C0CF1010C4FEA4C05B2FBF5F0F0BD9B
:1015D000001002404C7603080024F40000127A0048
:1015E0002DE9F843044614B90120BDE8F883F94811
:1015F000806800F00C06F748C06800F00307207808
:1016000000F01000102877D11EB10C2E76D1012FDA
:1016100074D1F048006800F0020018B1A06908B960
:101620000120E2E7EB48216A006800F0080020B1E1
:10163000E848006800F0F00005E0E64894300068F3
:1016400000F47060000981421FD9206A01F02AFF6E
:1016500008B10120C9E700BFDE48006840F008007B
:10166000DC4908600846006820F0F000216A084361
:10167000D849086000BF0846406820F47F40E1690F
:1016800040EA0120D34948601FE000BFD14800680C
:1016900040F00800CF4908600846006820F0F000DC
:1016A000216A0843CB49086000BF0846406820F41F
:1016B0007F40E16940EA0120C64948602EB9206AAE
:1016C00001F0F0FE08B101208FE7FFF713FFC149D9
:1016D0008968C1F30311C04A515C01F01F01C84081
:1016E000BE490860BE480068FFF782F98046B8F13D
:1016F000000F4ED0404678E74BE0FFE7A06980B38B
:10170000B448006840F00100B2490860FFF74EF9A4
:10171000054606E0FFF74AF9401B022801D90320DD
:1017200063E7AC48006800F002000028F2D000BF78
:10173000A848006840F00800A6490860084600680C
:1017400020F0F000216A0843A249086000BF084663
:10175000406820F47F40E16940EA01209D494860EB
:1017600017E0FFE79B48006820F0010099490860F6
:10177000FFF71CF9054606E0FFF718F9401B0228A1
:1017800001D9032031E79348006800F002000028E7
:10179000F2D1207800F0010000285CD0082E03D0A0
:1017A0000C2E0AD1032F08D18A48006800F40030BB
:1017B00088B3606878BB012017E700BF6068B0F5A8
:1017C000803F06D18348006840F48030814908603A
:1017D0001AE06068B0F5A02F0BD17E48006840F495
:1017E00080207C4908600846006840F4803008602A
:1017F0000AE07848006820F480307649086008469E
:10180000006820F48020086000BF606890B1FFF796
:10181000CDF8054607E01EE0FFF7C8F8401B642836
:1018200001D90320E1E66B48006800F4003000288D
:10183000F2D010E0FFF7BAF8054606E0FFF7B6F879
:10184000401B642801D90320CFE66248006800F4F9
:1018500000300028F2D1207800F00200022852D196
:10186000042E03D00C2E14D1022F12D15948006837
:1018700000F4806018B1E06808B90120B5E6554869
:10188000406820F0F850217C40EA016051494860EE
:1018900039E0E06800B34F48006840F480704D497B
:1018A0000860FFF783F8054606E0FFF77FF8401B66
:1018B000022801D9032098E64648006800F48060B9
:1018C0000028F2D04348406820F0F850217C40EADC
:1018D00001604049486016E03E48006820F480708E
:1018E0003C490860FFF762F8054606E0FFF75EF83E
:1018F000401B022801D9032077E63648006800F42F
:1019000080600028F2D1207800F00800082836D145
:101910006069D0B12F489430006840F001002D4933
:10192000C1F89400FFF742F8054606E0FFF73EF8DD
:10193000401B022801D9032057E62648943000684E
:1019400000F002000028F1D019E02248943000682D
:1019500020F001001F49C1F89400FFF727F8054661
:1019600006E0FFF723F8401B022801D903203CE6DC
:1019700018489430006800F002000028F1D1207867
:1019800000F00400042872D14FF000091148806D66
:1019900000F0805078B900BF0E48806D40F0805054
:1019A0000C4988650846806D00F08050009000BFAB
:1019B00000BF4FF001090B48006800F4807000BBC5
:1019C0000848006840F4807006490860FEF7EEFFA2
:1019D000054610E000100240347603080C00002099
:1019E0000400002000700040FEF7E0FF401B0228CA
:1019F00001D90320F9E5D048006800F48070002880
:101A0000F2D000BFA068012808D1CC48006840F09F
:101A10000100CA499039C1F8900021E0A06805286A
:101A20000FD1C648006840F00400C4499039C1F89D
:101A300090000846D0F8900040F00100C1F89000F6
:101A40000EE0BE48006820F00100BC499039C1F8A2
:101A500090000846D0F8900020F00400C1F89000F3
:101A600000BFA068A0B1FEF7A1FF054609E02EE087
:101A7000FEF79CFF401B41F28831884201D90320C8
:101A8000B3E5AE48006800F002000028F0D012E094
:101A9000FEF78CFF054608E0FEF788FF401B41F289
:101AA0008831884201D903209FE5A448006800F0EE
:101AB00002000028F0D1B9F1010F07D19F489038FA
:101AC000806D20F080509D499039886500BF207856
:101AD00000F02000202838D1606AD8B1974808303B
:101AE000006840F0010095499039C1F89800FEF770
:101AF0005DFF054606E0FEF759FF401B022801D9AD
:101B0000032072E58D480830006800F002000028CC
:101B1000F1D01AE089480830006820F001008749B8
:101B20009039C1F89800FEF741FF054606E0FEF740
:101B30003DFF401B022801D9032056E57F480830AD
:101B4000006800F002000028F1D1A06A00287DD0D2
:101B5000A06A02287BD179489038C76807F0030152
:101B6000E06A814225D107F07001206B401EB1EB85
:101B7000001F1ED107F4FE41606BB1EB002F18D19E
:101B800007F078413820005DB1EBC06F11D107F448
:101B9000C001A08F0122C2EB5000B1EB405F08D121
:101BA00007F0C0614020005DC2EB5000B1EB406F18
:101BB00066D00C2E62D061489038006800F08060DA
:101BC00008B1012011E55D489038006820F0807070
:101BD0005A4990390860FEF7E9FE054606E0FEF72F
:101BE000E5FE401B022801D90320FEE4534890384B
:101BF000006800F000700028F1D1D4E90B10401EFD
:101C000041EA0011606B41EA0021A08F0122C2EB82
:101C1000500041EA40514020005DC2EB500041EAD3
:101C200040613820005D41EAC06044499039C9688C
:101C3000434A1140084341499039C860084600684A
:101C400040F0807008600846C06801E05BE03DE05D
:101C500040F08070C860FEF7A9FE054606E0FEF77A
:101C6000A5FE401B022801D90320BEE4334890386A
:101C7000006800F000700028F1D05AE00120B4E4C0
:101C80002E489038006800F00070E0BB2B48903878
:101C9000006840F080702949903908600846C068A3
:101CA00040F08070C860FEF781FE054606E0FEF752
:101CB0007DFE401B022801D9032096E41F4890387E
:101CC000006800F000700028F1D032E00C2E2ED019
:101CD0001A489038006820F08070184990390860E0
:101CE0000846006800F0006020B90846C06820F08F
:101CF0000300C86011489038C068124908400F4975
:101D00009039C86000E014E0FEF750FE054606E09A
:101D1000FEF74CFE401B022801D9032065E407486A
:101D20009038006800F000700028F1D101E0012037
:101D30005BE4002059E40000007000409010024075
:101D40008C809D01FFFFEEFE704770B504460CB914
:101D5000012070BD606A38B96068B0F5827F00D13B
:101D600005E00021E16102E00021216161610021C3
:101D7000A16294F85D0028B9002084F85C00204638
:101D800000F05CF8022084F85D002068006820F014
:101D9000400021680860E068B0F5E06F01D90025D7
:101DA00001E04FF48055E068B0F5706F05D0E06851
:101DB000B0F5E06F01D00021A162A08800F482702C
:101DC000218901F404410843217C01F00201084308
:101DD000217D01F001010843218B01F400710843CA
:101DE000217F01F0380108432021095D01F08001C5
:101DF0000843218D01F40051084321680860042143
:101E0000A06901EA104094F8241001F01001084381
:101E100094F8341001F008010843A18901F47061BD
:101E2000084305F48051084321684860002020667B
:101E3000012084F85D0000208BE7000010B586B01B
:101E40000446142101A8FEF70CFA334920688842A1
:101E50005FD100BF3148806D40F480402F498865D4
:101E60000846806D00F48040009000BF00BF00BFB6
:101E70000846C06C40F00400C8640846C06C00F01E
:101E80000400009000BF00BF00BF0846C06C40F0D7
:101E90000200C8640846C06C00F00200009000BF59
:101EA00000BF082001900220029000200390032030
:101EB00004900520059001A91948FEF78DFC4FF408
:101EC0000050019002200290002003900320049013
:101ED0000520059001A91348FEF77EFC124813491E
:101EE0000860012048601021104881600021C16015
:101EF00080210161002141618161C1610162FEF7C0
:101F000083FB08B1FEF76FFA00BF08486065846282
:101F100000BF06B010BD00000038004000100240B5
:101F200000080048000400485800024084130020C4
:101F30002DE9F04104460E461546002700BF94F8EF
:101F40005C00012802D10220BDE8F081012084F864
:101F50005C0000BF94F85D00012801D0022782E0F8
:101F600006B10DB901277EE0032084F85D00002052
:101F70002066A663A587E58720642065E064A4F851
:101F80004400A4F84600A068B0F5004F0BD12068CB
:101F9000006820F04000216808602068006840F474
:101FA0008040216808603348616D08633248616D84
:101FB000C8623248616D48630020616D88632068A3
:101FC000406820F4804021684860E068B0F5E06F28
:101FD0001DD8606D8069B0F5806F18D1E08F00F07A
:101FE000010048B92068406820F4804021684860BA
:101FF000E08F4010E0870AE02068406840F48040AD
:1020000021684860E08F012101EB6000E087E38FE9
:10201000D4F800C00CF10C02A16B606DFEF77AFBE6
:1020200040B1206E40F0100020660127012084F8A6
:102030005D0018E02068006800F04000402805D0EE
:102040002068006840F0400021680860206840680F
:1020500040F02000216848602068406840F002009D
:102060002168486000BF00BF002084F85C0000BF0A
:10207000384669E7693500087735000841350008BA
:102080007047704770B504462546681EB0F1807FE2
:1020900001D301200FE0681E4FF0E02148610F21BD
:1020A0004FF0FF3002F04AF800204FF0E021886145
:1020B00007200861002070BD70477047704700001E
:1020C00030B502460B4600BF92F83C00012801D112
:1020D000022030BD012082F83C0000BF022082F8BF
:1020E0003D001068416810688468154D1068A8426A
:1020F00003D121F470015868014321F07001186880
:102100000143106841600E4D1068A84207D0106866
:10211000B0F1804F03D00B4D1068A84205D124F0D8
:1021200080049868044310688460012082F83D00B0
:1021300000BF002082F83C0000BF00BFC9E70000DC
:10214000002C01400040014010B504460CB90120AC
:1021500010BD94F83D0028B9002084F83C002046CA
:1021600000F02AF8022084F83D00211D206801F0CB
:10217000D3FB012084F8480000BF84F83E00012111
:102180003F20015540200155412001554220015575
:102190004320015500BF00BF012084F844004520C2
:1021A0000155462001554720015500BF012084F804
:1021B0003D000020CCE7000038B504460D492068FA
:1021C000884215D100BF0C48806D40F020000A49BC
:1021D00088650846806D00F02000009000BF00BFB9
:1021E000002211463720FEF763FC3720FEF74CFC37
:1021F00038BD00000014004000100240014691F874
:102200003D00012801D001207047022081F83D00E7
:102210000868C06840F001000B68D860124B08687D
:10222000984207D00868B0F1804F03D00F4B086880
:10223000984210D1086880680D4B00EA0302062A14
:102240000FD0B2F5803F0CD00868006840F0010064
:102250000B68186005E00868006840F001000B6832
:1022600018600020D0E70000002C01400040014031
:1022700007000100704710B5044620680069C0F3EC
:102280004000D8B12068C068C0F34000B0B16FF022
:10229000020021680861012020772068806900F031
:1022A000030018B12046FFF7E5FF05E0204600F0E7
:1022B000BEF8204600F0BCF80020207720680069B6
:1022C000C0F38000D8B12068C068C0F38000B0B10E
:1022D0006FF004002168086102202077206880697F
:1022E00000F4407018B12046FFF7C4FF05E0204617
:1022F00000F09DF8204600F09BF800202077206831
:102300000069C0F3C000D8B12068C068C0F3C00045
:10231000B0B16FF0080021680861042020772068C0
:10232000C06900F0030018B12046FFF7A3FF05E0E5
:10233000204600F07CF8204600F07AF80020207754
:1023400020680069C0F30010D8B12068C068C0F3ED
:102350000010B0B16FF010002168086108202077EC
:102360002068C06900F4407018B12046FFF782FF72
:1023700005E0204600F05BF8204600F059F8002008
:1023800020772068006900F0010058B12068C0681B
:1023900000F0010030B16FF00100216808612046B3
:1023A00000F048F820680069C0F3C01058B12068F8
:1023B000C068C0F3C01030B16FF0800021680861C0
:1023C0002046FFF77AFE20680069C0F3002058B16C
:1023D0002068C068C0F3C01030B16FF4807021680D
:1023E00008612046FFF768FE20680069C0F380108E
:1023F00058B12068C068C0F3801030B16FF0400061
:1024000021680861204600F021F820680069C0F3C7
:10241000401058B12068C068C0F3401030B16FF070
:102420002000216808612046FFF748FE10BD704774
:102430007047000010B504460348844202D10120D1
:102440002EF0E4FC10BD0000CC1300207047704754
:10245000704770472DE9F04704462068C569206839
:1024600006682068876840F60F0005EA0009B9F1A0
:10247000000F0CD105F0200048B106F0200030B16B
:10248000606E10B12046616E8847BDE8F087B9F1F3
:10249000000F7DD007F0010018B99C48304000289B
:1024A000F7D005F0010058B106F4807040B101206A
:1024B00021680862D4F8800040F00100C4F8800070
:1024C00005F0020058B107F0010040B10220216878
:1024D0000862D4F8800040F00400C4F8800005F0E1
:1024E000040058B107F0010040B1042021680862DF
:1024F000D4F8800040F00200C4F8800005F0080025
:1025000070B106F0200010B907F0010040B10820BA
:1025100021680862D4F8800040F00800C4F8800008
:1025200005F4006060B106F0806048B14FF40060CF
:1025300021680862D4F8800040F02000C4F88000D0
:10254000D4F8800090B305F0200038B106F02000E8
:1025500020B1606E10B12046616E8847D4F880A02B
:102560002068806800F04000402802D00AF028006F
:1025700028B3204601F0CBFA2068806800F04000C4
:10258000402818D12068806820F04000216800E0D1
:102590001CE08860206F50B15D48216F8863206F18
:1025A000FDF785FF10B1206F816B88470DE0204655
:1025B000FFF74FFF09E02046FFF74BFF05E02046FD
:1025C000FFF747FF0020C4F880005EE7206E012877
:1025D00076D105F01000002872D006F01000002817
:1025E0006ED01020216808622068806800F04000EA
:1025F00040283CD1206F006840681FFA80F8B8F18D
:10260000000F33D0B4F8580040452FDDA4F85A80AD
:10261000206F0068006800F02000F0B920680068B2
:1026200020F48070216808602068806820F0010034
:10263000216888602068806820F0400021688860F8
:102640002020E067002020662068006820F010004D
:1026500021680860206FFDF7FDFEB4F85800B4F85B
:102660005A20801A81B22046FFF7F1FE0DE734F8B8
:10267000580F6188401A1FFA80F86088583CE8B10A
:10268000B8F1000F1AD02068006820F4907021681B
:1026900008602068806820F00100216888602020A0
:1026A000E0670020206660662068006820F0100067
:1026B0002168086041462046FFF7C9FEE5E6FFE7CE
:1026C00005F4801050B107F4800038B14FF4801049
:1026D000216808622046FFF7BBFED6E605F08000C1
:1026E00040B106F0800028B1A06E10B12046A16E66
:1026F0008847CAE605F0400030B106F0400018B146
:10270000204601F01FFAC0E600BFBEE6200100042B
:10271000F73A000810B504460CB9012010BDA069B5
:1027200000B100E000BFA06F28B9002084F8740059
:10273000204600F029F82420A0672068006820F0D7
:10274000010021680860204601F00CFA012800D140
:10275000E4E7606A10B1204601F018F9206840688B
:1027600020F49040216848602068806820F02A00AA
:10277000216888602068006840F0010021680860D6
:10278000204601F07FF9C9E710B586B00446142150
:1027900001A8FDF766FD1C492068884232D100BFC0
:1027A0001A48006E40F48040184908660846006EDA
:1027B00000F48040009000BF00BF00BF0846C06C1E
:1027C00040F00100C8640846C06C00F001000090B1
:1027D00000BF00BF4FF4C0600190022002900020B3
:1027E0000390032004900720059001A94FF090402A
:1027F000FDF7F2FF002211462520FEF759F92520AA
:10280000FEF742F906B010BD00380140001002404A
:102810002DE9F84F04460E4617469946A06F20282A
:102820005DD106B117B9012000F05BB800BF94F884
:102830007400012801D10220F6E7012084F8740019
:1028400000BF0020503420632120A062FEF7AEF8C4
:10285000824627806780503CA068B0F5805F04D135
:10286000206910B90025B04602E035464FF0000857
:1028700000BF002084F8740000BF1DE05346002212
:1028800080212046CDF8009001F0E9FA08B103203C
:10289000CAE745B9B8F80000C0F308002168088508
:1028A00008F1020803E02878216808856D1CB4F857
:1028B0005200401EA4F85200B4F852000028DDD1A6
:1028C0005346002240212046CDF8009001F0C7FA7F
:1028D00008B10320A8E72020A0670020A4E7022079
:1028E000A2E718BCBDE8E08F704700BFFEE72DE906
:1028F000F04104460D4616461F462A2000F0B8F95E
:10290000201200F0C3F9E0B200F0C0F9301200F07C
:10291000BDF9F0B200F0BAF92B2000F0A9F92812A5
:1029200000F0B4F9E8B200F0B1F9381200F0AEF9F5
:10293000F8B200F0ABF92C2000F09AF9BDE8F08174
:10294000F8B505460020009028128DF80000E8B286
:102950008DF80100EF231A4600210846FFF7C7FF54
:1029600000240DE09DF800000F4901F814009DF8C7
:102970000100012101EB44010B4A5054601C84B258
:10298000B4F5107FEEDB012240210848FEF708F87D
:10299000002606E04FF49061034800F047F9701CF0
:1029A00086B2642EF6DBF8BD9C14002000080048B7
:1029B00000B587B0142102A8FDF753FC00BF3048D2
:1029C000C06C40F004002E49C8640846C06C00F09A
:1029D0000400019000BF00BF00BF0846C06C40F07B
:1029E0008000C8640846C06C00F08000019000BF01
:1029F00000BF00BF0846C06C40F00200C864084633
:102A0000C06C00F00200019000BF00BF00224FF434
:102A100000411C48FDF7C4FF0022C0211A48FDF701
:102A2000BFFF4FF40040029001200390002004906B
:102A3000059002A91348FDF7CFFEC02002900120A7
:102A4000039000200490059002A90F48FDF7C4FEF2
:102A500000224FF400410B48FDF7A2FF0022802125
:102A60000948FDF79DFF6420FDF7A2FE01228021A9
:102A70000548FDF795FF00F0C5F907B000BD00005F
:102A800000100240000400480008004810B5FFF79D
:102A90008FFF7820FDF78CFE112000F0E9F87820F8
:102AA000FDF786FE362000F0E3F8002000F0EEF897
:102AB0003A2000F0DDF8652000F0E8F8B22000F0E0
:102AC000D7F80C2000F0E2F80C2000F0DFF800202E
:102AD00000F0DCF8332000F0D9F8332000F0D6F80D
:102AE000B72000F0C5F8722000F0D0F8BB2000F04D
:102AF000BFF83D2000F0CAF8C02000F0B9F82C2043
:102B000000F0C4F8C22000F0B3F8012000F0BEF8D5
:102B1000C32000F0ADF8192000F0B8F8C42000F090
:102B2000A7F8202000F0B2F8C62000F0A1F80F208E
:102B300000F0ACF8D02000F09BF8A42000F0A6F83C
:102B4000A12000F0A3F8E02000F092F8D02000F0DF
:102B50009DF8042000F09AF80D2000F097F811205D
:102B600000F094F8132000F091F82B2000F08EF87C
:102B70003F2000F08BF8542000F088F84C2000F043
:102B800085F8182000F082F80D2000F07FF80B2067
:102B900000F07CF81F2000F079F8232000F076F890
:102BA000E12000F065F8D02000F070F8042000F07B
:102BB0006DF80C2000F06AF8112000F067F813207F
:102BC00000F064F82C2000F061F83F2000F05EF87F
:102BD000442000F05BF8512000F058F82F2000F05E
:102BE00055F81F2000F052F81F2000F04FF8202069
:102BF00000F04CF8232000F049F8212000F038F8CC
:102C0000292000F035F8EF231A4600210846FFF787
:102C10006EFE4FF6FF70FFF793FE0122D1030248CC
:102C2000FDF7BEFE10BD00000004004870B504466C
:102C30000D462A4621460248FFF77AF970BD00008A
:102C40002013002038B504460020009020128DF893
:102C50000000E0B28DF80100012240210348FDF799
:102C60009FFE02216846FFF7E1FF38BD00080048DB
:102C700001B5002240210448FDF792FE012168467B
:102C8000FFF7D4FF08BD00000008004801B501228D
:102C900040210448FDF784FE01216846FFF7C6FF86
:102CA00008BD00000008004808B500BF0A48806C55
:102CB00040F00100084988640846806C00F001007B
:102CC000009000BF00BF002211460F20FDF7F0FE6C
:102CD0000F20FDF7D9FE08BD0010024010B50349D2
:102CE0000348FDF783FB0349087010BD290000204D
:102CF000140000202800002000B587B0142102A88D
:102D0000FDF7AFFA00BF2D48C06C40F004002B491E
:102D1000C8640846C06C00F00400019000BF00BF0A
:102D200000BF0846C06C40F08000C8640846C06C14
:102D300000F08000019000BF00BF00BF0846C06CDB
:102D400040F00200C8640846C06C00F00200019028
:102D500000BF00BF00BF0846C06C40F00100C8645F
:102D60000846C06C00F00100019000BF00BF0022C7
:102D70004FF400411248FDF713FE0022C021114814
:102D8000FDF70EFE4FF4004002900120039000205A
:102D900004900320059002A90948FDF71DFDC020FD
:102DA000029001200390002004900320059002A9C6
:102DB0000448FDF711FD07B000BD000000100240FF
:102DC000000400480008004810B50C480C49086091
:102DD0000020486004210A4881601021C16016214A
:102DE00001614FF44071416100218161C161016263
:102DF000FDF754FF08B1FDF7F6FA10BD001000A072
:102E0000D412002010B51148114908604FF48270A7
:102E1000486000210E4881604FF4E061C1600221EA
:102E2000016101214161490281610021C1610162A9
:102E3000416281620721C162002101634163FEF7A3
:102E400084FF08B1FDF7CFFA10BD00000038004044
:102E5000201300200EB500200090019002900E4833
:102E60000E4908604F20486000210C48816040F204
:102E7000E731C16000218161FFF766F908B1FDF714
:102E8000B2FA00200090029069460448FFF718F952
:102E900008B1FDF7A8FA0EBD00140040CC130020C5
:102EA00010B50D480D4908604FF4E130486000212D
:102EB0000A488160C16001610C214161002181618A
:102EC000C16101620020054948620846FFF722FC03
:102ED00008B1FDF788FA10BD003801401814002031
:102EE00000BFFEE708B50122224923480FF0B0FADF
:102EF0002249087008460078002837D00846007834
:102F00000D282DD11EA001F001F94FF48050274B60
:102F100000220721009017480EF028FF174908707B
:102F20000846007828B10846017821A001F0EEF8A3
:102F30001FE027A001F0EAF801220E490E480FF029
:102F400087FA0E4908700846007828B108460178CB
:102F500028A001F0DBF80CE02EA001F0D7F808E083
:102F60000648017832A001F0D1F802E029A001F072
:102F7000CDF808BD290000201C19002028000020E1
:102F8000665F6D6F756E7420C3BBD3D0CEC4BCFEBC
:102F9000CFB5CDB32CBFAACABCB8F1CABDBBAF7305
:102FA00070692D666C6173680D0A0000D302002001
:102FB000665F6D6B667320B8F1CABDBBAFCAA7B0C0
:102FC000DCA3AC657272203D2025640D0A00000070
:102FD000B8F1CABDBBAFB3C9B9A6A3ACBFAACABC3E
:102FE000D6D8D0C2B9D2D4D87370692D666C61734B
:102FF000680D0A00665F6D6F756E7420B7A2C9FA1E
:10300000B4EDCEF3A3AC657272203D2025640D0AA9
:10301000000000007370692D666C617368CEC4BCDB
:10302000FECFB5CDB3B9D2D4D8B3C9B9A60D0A0075
:10303000665F6D6F756E7420B7A2C9FAC6E4CBFBEC
:10304000B4EDCEF3A3AC657272203D2025640D0A69
:103050000000000000BFFEE7704710B54B6A33B1B7
:10306000B2F1406F03D08B6A5B1E046823618B69E9
:10307000002B76D00B6AE3B38B680468E361CB69FD
:10308000FBB1D1E90B3423434C6B23434C6A2343FC
:103090008C8A43EA84430C6923430C6A2343CC683B
:1030A0002343CC6923438C6923430C682343134394
:1030B00004686361B2F1406F02D04B680468A36199
:1030C000BEE0D1E90B3423434C6B23434C6A2343CA
:1030D0008C8A43EA84430C6923430C6A2343CC69FA
:1030E00023438C6923430C682343134304686361BF
:1030F000A6E0FFE7CB69EBB1D1E90B3423434C6B7E
:1031000023434C6A23438C8A43EA84430C6A234357
:10311000CC682343CC6923438C6923430C68234345
:10312000134304686361B2F1406FC9D04B6804680F
:10313000A36185E0D1E90B3423434C6B23434C6AF4
:1031400023438C8A43EA84430C6A2343CC69234398
:103150008C6923430C6823431343046863616FE065
:10316000FFE70B6AC3B38B680468E361CB69EBB11B
:10317000D1E90B3423434C6B23434C6A23438C8AA1
:1031800043EA84430C6923430C6A2343CC682343FA
:10319000CC6923438C692343134304686361B2F110
:1031A000406F4DD04B680468A36149E0D1E90B340E
:1031B00023434C6B23434C6A23438C8A43EA844366
:1031C0000C6923430C6A2343CC6923438C69234352
:1031D00013430468636133E0FFE7CB69DBB1D1E9F6
:1031E0000B3423434C6B23434C6A23438C8A43EABE
:1031F00084430C6A2343CC682343CC6923438C6902
:103200002343134304686361B2F1406F18D04B68E5
:103210000468A36114E04B6A93B1D1E90B342343F2
:103220004C6B23434C6A23438C8A43EA84430C6AE5
:103230002343CC6923438C692343134304686361AC
:1032400010BD000070B504460D46681E04490968AB
:10325000086141F2883221460148FDF7BDFD70BD8D
:10326000D41200202DE9F0478EB004460D461646D4
:103270001F46DDE9179ADDF8588000940195059600
:103280000697CDF81C80CDF80C90CDF824A0002036
:103290000D9008900B900C9041F2883269460348DB
:1032A000FDF7AAFC0EB0BDE8F0870000D4120020A4
:1032B00070B504460D46681E04490968086141F26C
:1032C000883221460148FDF7FEFD70BDD412002072
:1032D0002DE9F04104460E4617469846069D12E039
:1032E000681C80B1FDF762FBA0EB0800A84200D883
:1032F0004DB9042084F84100606C40F00100606426
:103300000120BDE8F08120688068304008B10120CC
:1033100000E00020B842E3D10020F2E72DE9F041BF
:1033200004460F4600255B48C06800F0030090B1DA
:103330005848C06800F003002168884209D120681D
:1033400038B15448C068C0F30210401C616888421C
:1033500033D0012531E02068012804D0022809D0AB
:1033600003281AD10DE04B48006800F0020000B9B4
:10337000012514E04748006800F4806000B9012589
:103380000DE04448006800F4003028B94148006866
:1033900000F4802000B9012501E0012500BF00BF35
:1033A0005DB9D4E90010401E41EA00103949C968EE
:1033B00021F0730108433749C860002D67D13548B3
:1033C000006820F0806033490860FDF7EFFA064698
:1033D00006E0FDF7EBFA801B022801D9032505E082
:1033E0002C48006800F000600028F2D100BFC5BB87
:1033F00067B9A0680002217B40EAC16025490969DC
:10340000254A114008432349086120E0012F0FD1CC
:10341000A0680002218A0122C2EB510140EA41501A
:103420001C4909691D4A114008431A4908610EE008
:10343000A0680002217D0122C2EB510140EA4160F7
:1034400014490969164A1140084312490861114894
:10345000006840F080600F490860FDF7A7FA064653
:1034600007E014E0FDF7A2FA801B022801D903252A
:1034700005E00848006800F000600028F2D000BFB6
:103480002DB904480069A16908430249086128462A
:10349000BDE8F08100100240FF80FF07FF809FFF22
:1034A000FF80FFF9F8B5044600262348806D00F040
:1034B000805018B1FDF798FB054616E000BF1E4886
:1034C000806D40F080501C4988650846806D00F092
:1034D0008050009000BF00BFFDF786FB05461648F0
:1034E000806D20F0805014498865B5F5007F07D1C4
:1034F000802C10D9A02C01D902260CE001260AE06C
:10350000802C01D9032606E0802C01D1022602E09E
:10351000702C00D101260948006820F007003043D4
:10352000064908600846006800F00700B04201D074
:103530000120F8BD0020FCE70010024000200240FE
:1035400070B50546AC6A2068406820F00300216829
:103550004860206E40F010002066012084F85D0075
:103560002046FEF7F1FB70BD70B50446A56A2846FB
:10357000FEF787FD70BDF8B50546AC6AFDF716FA93
:1035800006462868006800F0200020282DD020681A
:10359000406820F02000216848602068406820F0E2
:1035A00002002168486032466421204600F022F87B
:1035B00018B1206E40F020002066A06850B900BF0E
:1035C000002000902068C06800902068806800900B
:1035D00000BF00BF0020E087012084F85D00206E5E
:1035E00018B12046FEF7B0FBF8BD2046FEF748FDB7
:1035F00000BFF9E7F8B504460E46154633460022EB
:103600004FF4C0512046009500F026F828B1206EF6
:1036100040F0200020660320F8BD334600228021C0
:103620002046009500F090F828B1206E40F0200070
:1036300020660320F0E7334600224FF4C0612046A5
:10364000009500F009F828B1206E40F020002066B7
:103650000320E1E70020DFE72DE9FC4704460D46A3
:1036600016469846DDF82890FDF7A0F9A0EB090072
:10367000A8EB0007FDF79AF9824630480068C0EBD6
:10368000C00000EB8000000D784300904EE0B5F5DF
:10369000C06F04D11EB92068007B019000BF08F103
:1036A0000100002842D0FDF781F9A0EB0A00B842E2
:1036B00000D2A7BB2068406820F0E0002168486085
:1036C0006068B0F5827F0DD1A068B0F5004F03D0DF
:1036D000A068B0F5806F05D12068006820F0400038
:1036E00021680860A06AB0F5005F0DD100BF2068B6
:1036F000006820F40050216808602068006840F4E9
:1037000000502168086000BF012084F85D0000BF00
:10371000002084F85C0000BF032000F011B8FFE730
:10372000009800B900270098401E0090206880682B
:103730002840B042ABD10020EFE700000C00002091
:103740000CBCBDE8F08700002DE9F84F04460D469B
:1037500090461E46DDF82890FDF728F9A0EB0900F9
:10376000371AFDF723F982462C480068C0F3CB30A6
:103770007843009045E0701C002842D0FDF716F910
:10378000A0EB0A00B84200D2A7BB2068406820F036
:10379000E000216848606068B0F5827F0DD1A068C4
:1037A000B0F5004F03D0A068B0F5806F05D1206858
:1037B000006820F0400021680860A06AB0F5005F52
:1037C0000DD100BF2068006820F400502168086017
:1037D0002068006840F400502168086000BF0120A4
:1037E00084F85D0000BF002084F85C0000BF032067
:1037F00000F016B8FFE7009800B900270098401EB7
:103800000090206880682840A84201D1012000E093
:1038100000204045AFD10020EAE700000C00002066
:1038200018BCBDE8E08F704710B5FDF7C5F810BDB6
:1038300000B5ADB044211CA8FCF713FD142117A856
:10384000FCF70FFD5C216846FCF70BFD01201C9086
:1038500000041D900220269003211CA8C1620121B2
:10386000016314214163072181630221C163016463
:10387000FDF7B6FE08B1FCF7B6FD0F201790032048
:103880001890002019901A901B90042117A8FDF79A
:1038900049FD08B1FCF7A7FD012000900020089029
:1038A0006846FDF77BFB08B1FCF79DFD4FF4007007
:1038B000FDF754F908B1FCF796FD2DB000BD0000EE
:1038C0000E48006840F470000C4908600C4800681D
:1038D00040F001000A49086000208860084600683E
:1038E00008490840064908608814C860084600680E
:1038F00020F48020086000208861704788ED00E097
:1039000000100240FFFFF6EA10B50248FEF7B3FCD4
:1039100010BD0000CC13002010B50268184B98426F
:1039200002D0B0F1804F03D122F070024B681A43ED
:10393000134B984208D0B0F1804F05D0114B9842FC
:1039400002D0114B984203D122F44072CB681A4343
:1039500022F080034C6943EA040202608B68C36270
:103960000B688362064B984205D0064B984202D002
:10397000054B984201D10B6903630123436110BDDC
:10398000002C0140004001400044014090F8241008
:1039900001F0010139B10168496821F40031826AFE
:1039A00011430268516090F8241001F002010229CD
:1039B00007D10168496821F48031C26A1143026865
:1039C000516090F8241001F00401042907D1016826
:1039D000496821F48021026B11430268516090F81C
:1039E000241001F00801082907D10168496821F471
:1039F0000041426B11430268516090F8241001F0BD
:103A00001001102907D10168896821F48051826B67
:103A100011430268916090F8241001F020012029E0
:103A200007D10168896821F40051C26B1143026813
:103A3000916090F8241001F04001402913D10168F1
:103A4000496821F48011026C114302685160016CD5
:103A5000B1F5801F07D10168496821F4C001426CAB
:103A600011430268516090F8241001F08001802910
:103A700007D10168496821F40021826C1143026872
:103A80005160704738B504460020C4F88000FCF748
:103A90008DFF05462068006800F0080008280CD15A
:103AA0006FF07E402B4600224FF40011009020461C
:103AB00000F0D5F908B1032038BD2068006800F097
:103AC000040004280CD16FF07E402B4600224FF4F6
:103AD00080010090204600F0C2F908B10320EBE716
:103AE0002020A067E0670020206600BF84F87400F3
:103AF00000BF00BFE0E770B50546AC6A0020A4F83F
:103B00005A00A4F852002046FEF7A3FC70BD0168DD
:103B1000096821F49071026811600168896821F0D8
:103B2000010102689160016E012905D101680968EF
:103B300021F01001026811602021C1670021016697
:103B40004166704710B504462068006820F04000C8
:103B5000216808602020A0670020A0662046FEF7AC
:103B6000C3FE10BD2DE9F84F044600200090B34974
:103B70002068884200D100E000BF2169A0680843A6
:103B800061690843E16940EA010A20680068AC49BC
:103B9000084040EA0A00216808602068406820F474
:103BA0004050E168084321684860D4F818A0A34950
:103BB0002068884202D0206A40EA0A0A20688068A9
:103BC00020F4306040EA0A002168886000BF9D4907
:103BD0002068884216D19C48006800F0030030B18C
:103BE000012808D0022804D0032808D105E00125C7
:103BF00007E0022505E0042503E0082501E0102583
:103C000000BF54E091492068884216D18E48006870
:103C100000F00C0030B1042808D0082804D00C288B
:103C200008D105E0002507E0022505E0042503E0B2
:103C3000082501E0102500BF39E085492068884249
:103C400016D18148006800F0300030B1102808D04B
:103C5000202804D0302808D105E0002507E00225FF
:103C600005E0042503E0082501E0102500BF1EE063
:103C700072492068884219D17348006800F4406096
:103C800048B1B0F5806F0AD0B0F5006F05D0B0F53F
:103C9000406F08D105E0002507E0022505E0042576
:103CA00003E0082501E0102500BF00E0102500BF5B
:103CB00062492068884245D135B1022D08D0042DD3
:103CC00008D0082D0DD109E0FDF7F0FB06460CE009
:103CD000604E0AE0FDF70EFC064606E04FF4004693
:103CE00003E000260120009000BF00BF002E0AD094
:103CF000606800EB4000B04203D860680003B04247
:103D000002D20120009093E04FF48070A6FB0030B7
:103D1000D4F804C04FEA5C015F1840F1000162462C
:103D200000233846FCF750FA8146B9F5407F06D3A8
:103D3000B9F5801F03D22068C0F80C9078E001200C
:103D4000009075E0E069B0F5004F3CD1092D17D225
:103D5000DFE805F005090D160F1616161300FDF71E
:103D6000A5FB064610E0FDF7B3FB06460CE0394E16
:103D70000AE0FDF7BFFB064606E04FF4004603E00D
:103D800000260120009000BF00BF7EB37000616874
:103D900000EB5100B0FBF1F01FFA80F9B9F1100F00
:103DA0000ED3B9F5803F0BD24FF6F07009EA000B45
:103DB000C9F342004BEA000B2068C0F80CB037E0B2
:103DC0000120009034E0092D18D2DFE805F0050944
:103DD0000D17101717171400FDF768FB064611E0C2
:103DE000FDF776FB06460DE01A4E0BE020E0FDF7EE
:103DF00081FB064606E04FF4004603E00026012062
:103E0000009000BF00BF9EB1606806EB5000616883
:103E1000B0FBF1F01FFA80F9B9F1100F06D3B9F534
:103E2000803F03D22068C0F80C9001E00120009090
:103E300000206066A066009800F00EB80080004088
:103E4000F369FFEF00380140881002400044004051
:103E5000004800400024F40018BCBDE8E08F2DE9C4
:103E6000F04104460D4617469846069E46E0701CF3
:103E7000002843D0FCF79AFDA0EB0800B04200D820
:103E8000B6B92068006820F4D07021680860206806
:103E9000806820F00100216888602020A067E0672A
:103EA00000BF002084F8740000BF0320BDE8F0814B
:103EB0002068006800F0040000B32068C069C0F307
:103EC000C020D8B14FF40060216808622068006803
:103ED00020F4D070216808602068806820F001001C
:103EE000216888602020A067E067C4F8800000BFD8
:103EF000002084F8740000BF0320D7E72068C06961
:103F00002840A84201D1012000E00020B842AED0F4
:103F10000020CBE710B50248FEF79CFA10BD000068
:103F20001814002070B5054600F08BF804464EF6D4
:103F30001670844205D1214603A000F0E7F8002066
:103F400070BD0120FCE70000B6C1C8A149443A3069
:103F50007825780D0A0000000346012904D00229C3
:103F600006D003290CD107E04FF40060106007E091
:103F70004FF48050108003E04FF48030106000BF99
:103F800000BF002070472DE9F04107460C4615465A
:103F90001E464FF6FF7000EA06322903204600F065
:103FA00038F80020BDE8F08101460120024A107077
:103FB0001046007870470000100000202DE9F04105
:103FC00080460C4615461E462F03BAB231032046E2
:103FD00000F005F80020BDE8F08100BFFEE7FEB567
:103FE00005460E46144600F081F84FF08070C1126D
:103FF00082130314CDE900210290002231460220F1
:10400000FFF730F921462846FFF752F900F064F82F
:10401000FEBDFEB505460E46144600F05DF84FF0B5
:104020008070C11282130314CDE900210290002296
:1040300031460320FFF716F921462846FFF702F91B
:10404000FEBD1FB50020039000244FF08070C11208
:1040500082130314CDE90021029000221146902022
:10406000FFF700F978B9022103A8FFF7EBF840B990
:104070009DF80D009DF80C1040EA0124204604B084
:1040800010BD0020FBE70020F9E77FB504460025BE
:10409000002003904CB1012C02D0022C04D101E08D
:1040A000052500BF352500BF00BF052500BF00BFA7
:1040B0004FF08070C11200220314CDE9002102905C
:1040C00011462846FFF7CEF8012103A8FFF7BAF8FA
:1040D0009DF80C0004B070BD10B500BF0120FFF7C3
:1040E000D4FF00F001000028F8D110BD0EB500206B
:1040F000009001904FF48073024601460290062022
:10410000FFF7B0F8FFF7E8FF0EBD00000FB4054B56
:1041100010B503A9044A029803F088FF10BC5DF8AB
:1041200014FB0000ED2E0108C402002002480068C4
:10413000C0F30220704700000CED00E010B500282D
:1041400004DB0A07130E054A135406E00A07140E8F
:10415000034A00F00F031B1FD45410BD00E400E01D
:1041600018ED00E002E008C8121F08C1002AFAD1C9
:1041700070477047002001E001C1121F002AFBD1E7
:10418000704770B50446002508E02168481C20608F
:104190000878303805EB850100EB41052168087887
:1041A00000F004F80028F0D1284670BD01463029FF
:1041B00003DB392901DC012070470020FCE7000007
:1041C00010B544210A4801F0EFFD2CF00FFE09491B
:1041D0000860002304221E2107482AF037FE074901
:1041E000086004F0DFFB00200549087010BD0000E6
:1041F000EC3A0020C0000020958A0008C80000208A
:10420000C40000202DE9F04705460F4616461C461F
:10421000152E30D2DFE806F00B3034495765839A0B
:10422000AFCDD6F9F7F6F5F4F3F2F1F0EF0028464A
:1042300013F01EF8814600EBD9704FEA600A384649
:1042400013F016F8804600EBD870AAEB600000B2BD
:104250002080284612F08BFF814600EBD9704FEA90
:10426000600A384612F083FF804600EBD870AAEB54
:10427000600000B260806AE100202080608066E11A
:10428000284612F0F5FF814600EBD9704FEA600A2C
:10429000384612F0EDFF804600EBD870AAEB6000C4
:1042A00000B220800020608051E1284612F0E0FF3B
:1042B0008046384612F0DCFFA8EB000000B22080F8
:1042C0000020608043E100202080284612F04FFF4C
:1042D0008046384612F04BFFA8EB000000B2608029
:1042E00035E1284612F0C4FF814600EBD9704FEA51
:1042F000600A384612F0BCFF804600EBD870AAEB8B
:10430000600000B22080284612F031FF8046384617
:1043100012F02DFFA8EB000000B2608017E12846E4
:1043200012F0A6FF8046384612F0A2FFA8EB00006C
:1043300000B22080284612F01AFF8046384612F05C
:1043400016FFA8EB000000B2608000E10020208092
:10435000284612F00CFF814600EBD9704FEA600A44
:10436000384612F004FF804600EBD870AAEB6000DC
:1043700000B26080EBE0284612F07AFF80463846B3
:1043800012F076FFA8EB000000B22080284612F061
:10439000EEFE814600EBD9704FEA600A384612F013
:1043A000E6FE804600EBD870AAEB600000B26080A9
:1043B000CDE000202080384612F0D9FE404200B205
:1043C0006080C4E0284612F053FF814600EBD970AC
:1043D0004FEA600A384612F04BFF804600EBD87077
:1043E000AAEB600000B22080384612F0C0FE4042C6
:1043F00000B26080ABE09AE082E07AE067E04DE0F6
:1044000043E032E01AE012E0FFE7284612F030FF06
:104410008046384612F02CFFA8EB000000B2208046
:10442000384612F0A4FE404200B260808FE00020C7
:104430002080284612F09BFE608088E0284612F01B
:1044400017FF814600EBD9704FEA600A384612F038
:104450000FFF804600EBD870AAEB600000B220800E
:10446000284612F084FE608071E0284612F000FFBA
:104470008046384612F0FCFEA8EB000000B2208017
:10448000284612F074FE608061E0384612F0F0FEBB
:10449000404200B220800020608058E0384612F090
:1044A000E7FE404200B22080284612F060FE8146BE
:1044B00000EBD9704FEA600A384612F058FE804689
:1044C00000EBD870AAEB600000B260803FE0384695
:1044D00012F0CEFE404200B22080284612F047FE85
:1044E0008046384612F043FEA8EB000000B2608020
:1044F0002DE0284612F0BCFE20800020608026E0DF
:10450000284612F0B5FE2080284612F030FE814683
:1045100000EBD9704FEA600A384612F028FE804658
:1045200000EBD870AAEB600000B260800FE0284674
:1045300012F09EFE2080284612F019FE8046384672
:1045400012F015FEA8EB000000B2608000BF00BFB3
:1045500020882988084400B220806088698808443F
:1045600000B26080BDE8F08730B50346B1F9004085
:10457000B2F90050AC4202DDB1F9004001E0B2F9FD
:1045800000401C80B1F90240B2F90250AC4202DD99
:10459000B1F9024001E0B2F902405C80B1F9044097
:1045A000B2F90450AC4202DAB1F9044001E0B2F9C8
:1045B00004409C80B1F90640B2F90650AC4202DAE0
:1045C000B1F9064001E0B2F90640DC800120B3F900
:1045D0000040B3F90450AC4205DCB3F90240B3F932
:1045E0000650AC4200DD002030BDF8B504460D4653
:1045F00016460027B4F90000B5F90010884212DB16
:10460000B4F90200B5F9021088420CDBB4F90400D9
:10461000B5F90410884206DCB4F90600B5F90610B5
:10462000884200DC01270FB90020F8BD0EB9012037
:10463000FBE72088ADF800006088ADF80200324644
:104640006946284600F04CF808B90020EDE7A0883C
:10465000ADF800006088ADF8020032466946284691
:1046600000F03EF808B90020DFE72088ADF8000030
:10467000E088ADF8020032466946284600F030F87E
:1046800008B90020D1E7A088ADF80000E088ADF8B7
:10469000020032466946284600F022F808B9002098
:1046A000C3E70120C1E70246B2F90000B1F90430C6
:1046B000984213DCB2F90400B1F9003098420DDBE6
:1046C000B2F90200B1F90630984207DCB2F90600EF
:1046D000B1F90230984201DB012070470020FCE76D
:1046E0002DE9FC5F05460E4614464FF0000AB6F968
:1046F0000000B5F90010884213DBB6F90000B5F9E7
:10470000041088420DDCB6F90200B5F902108842A7
:1047100007DBB6F90200B5F90610884201DC4FF05C
:10472000010ABAF1000F02D1002000F0A2B8002C5B
:1047300001DC0120F9E7284612F09AFD834600EBE0
:10474000DB704710284612F012FD834600EBDB7049
:104750004FEA6008474501DA384600E040468146A6
:104760004C4500DD4C462888ADF8000028882044E0
:1047700000B2ADF804006888ADF8020068882044F3
:1047800000B2ADF80600002231466846FFF7A8FFE8
:1047900080B1BDF80400204400B2ADF80400BDF8BB
:1047A0000600204400B2ADF806003146684625F008
:1047B000D7FEBAE7E888001B00B2ADF80200E8882F
:1047C000ADF80600002231466846FFF789FF80B148
:1047D000BDF80400204400B2ADF80400BDF80200AA
:1047E000001B00B2ADF802003146684625F0B8FE65
:1047F0009BE7A888001B00B2ADF80000A888ADF8C0
:104800000400002231466846FFF76AFF80B1BDF818
:104810000000001B00B2ADF80000BDF80200001B54
:1048200000B2ADF802003146684625F099FE7CE7FB
:104830006888ADF802006888204400B2ADF8060030
:10484000002231466846FFF74BFF80B1BDF80000FB
:10485000001B00B2ADF80000BDF80600204400B215
:10486000ADF806003146684625F07AFE5DE7012086
:104870005BE73CBCBDE8C09F10B5B1F90030B2F9B0
:104880000040A34202DAB1F9003001E0B2F9003091
:104890000380B1F90230B2F90240A34202DAB1F961
:1048A000023001E0B2F902304380B1F90430B2F9CC
:1048B0000440A34202DDB1F9043001E0B2F9043052
:1048C0008380B1F90630B2F90640A34202DDB1F9A6
:1048D000063001E0B2F90630C38010BD2DE9F04189
:1048E00004460D461646204612F0C2FC07462046F6
:1048F00012F03DFC8046258066803946204612F045
:1049000003FD4146204612F0F9FCBDE8F081F0B508
:1049100006460D460024002E02DA601CC4B2764220
:104920003746002D02DAA01CC4B26D42AC46674582
:1049300009D9CCEB0C1000EB4000B0FBF7F304F10D
:104940001000C4B205E0C7EB071000EB4000B0FB5D
:10495000FCF30022D9B2162910DD2C2901DC501CF1
:10496000C2B2292901DC501CC2B2252901DC501C2D
:10497000C2B2202912DC501CC2B20FE0022901DBB6
:10498000501CC2B2062901DB501CC2B20A2901DB4D
:10499000501CC2B20F2901DB501CC2B2134404F0F8
:1049A000100008B1C3F15A0304F0020038B104F05A
:1049B000010008B1B43307E0C3F1B40304E004F02C
:1049C000010008B1C3F5B47398B2F0BD2DE9FF4FF3
:1049D00087B01C46DDE91478B8F1020F02DA0BB09B
:1049E00000F079B807B9FAE702F0B0F905462846B1
:1049F00017F088FA814609F11006D9F808000690E8
:104A0000686A10B12846696A884704A8DDE9071278
:104A1000FFF7AAFD8346BBF1000F00D1DFE7BDF829
:104A200010003188401A00B2ADF81000BDF8120035
:104A30007188401A00B2ADF81200BDF81400318838
:104A4000401A00B2ADF81400BDF816007188401A83
:104A500000B2ADF81600CCB1287A00F00100A8B978
:104A600004A812F0DBFB03904FF0000A0AE014F8F0
:104A70000A00802801DDFF2000E0002004F80A0081
:104A80000AF1010A03988245F1DB00BF686948B169
:104A9000CDE90084029704AA3046099B06990DF0DF
:104AA0008DFF16E0169848B9CDE90084029704AA54
:104AB0003046099B06990DF0B0FD0AE01698CDE945
:104AC0000084CDE9027004AA3046099B06990DF0D6
:104AD000EFFC00BF83E730BCBDE8C08F2DE9FF4F7E
:104AE00089B017461C46DDE91689B9F1020F02DAD2
:104AF0000DB000F07DB8B8F1000F00D1F8E707A8BD
:104B0000DDE90912FFF730FD0690069800B9EFE7DE
:104B100002F01CF90546284617F0F4F982460AF11E
:104B20001006DAF808000590686A10B12846696A2C
:104B30008847BDF81C003188401A00B2ADF81C004F
:104B4000BDF81E007188401A00B2ADF81E00BDF815
:104B500020003188401A00B2ADF82000BDF82200D4
:104B60007188401A00B2ADF82200CCB1287A00F06A
:104B70000100A8B907A812F051FB04904FF0000BF8
:104B80000AE014F80B00802801DDFF2000E000207F
:104B900004F80B000BF1010B04988345F1DB00BF17
:104BA000686950B1CDE90079CDE9024807AA3046DD
:104BB0000A9B05992CF0C5FE18E0189850B9CDE96C
:104BC0000079CDE9024807AA30460A9B05992CF0E6
:104BD000E0FC0BE01898CDE90079CDE9024804909B
:104BE00007AA30460A9B05992CF014FC00BF7FE70A
:104BF00030BCBDE8C08F00002DE9FF5F81462CF07E
:104C0000F5F803904FF0000ADB49D9F80C00086072
:104C100008460068C06B60B90021D7480068D0F82A
:104C2000780161F31940D4490968C1F8780100F0AE
:104C3000BFB925F021FF25F063FECF480068D0F80A
:104C40007801C0F30940002875D0CB48006817F000
:104C5000FFF9002870D0C8480068406900287DD15D
:104C6000C548006817F04EF9054626F033F800BF36
:104C7000A8690028FCD10027BF490968B1F90010D4
:104C8000480001F0D9F90746D5F808B02968A868A6
:104C9000884201D1686800E028680290B648006840
:104CA00017F047F9064600244BE0B348006800F5CA
:104CB000AD70005DF0BBB04800685A3030F9341078
:104CC000AD4800685A3000EBC400B0F9020006FBA2
:104CD00000104FEA4008A84909685A3101EBC400A6
:104CE00012F095FA40000090A34800685A3000EB9B
:104CF000C400B0F90200019012E0029800EB080134
:104D00003846009A01F096FA0BEB08003946009AF3
:104D100001F090FA08EB46080198401C00B201909F
:104D2000954800685A3000EBC400B0F906100198AD
:104D3000814202E003E03BE010E0DEDA00BF601CED
:104D400084B28D480068D0F87801C0F30940A042D1
:104D5000ABDC17B1384601F01FFA00BF4FF4807189
:104D6000854800685A3001F02FFC202182480068F5
:104D700000F5AD7001F028FC00217F480068D0F8F4
:104D8000780161F319407C490968C1F878010398FA
:104D90002CF01EF8824678480068806940B1764859
:104DA00000688369754851460268734800689847EF
:104DB00001F016F900F000F97148006800287AD176
:104DC00000BF17F0A3F8054617F0C6F80446002107
:104DD0001DF004FE6A4908600221694800681EF05F
:104DE00011FF674800252E46FF2704682C2040EA63
:104DF00006223B462946204601F06BFF00BF0020FB
:104E000002905F48046802980090292040EA062238
:104E100029462046009B01F01EFF00BF594800684C
:104E20000190574804680198009048F2890040EAD0
:104E3000062229462046009B01F00DFF00BF504886
:104E400003270468102040EA06223B4629462046F4
:104E500001F021FF00BF4A480468112040EA062201
:104E60003B462946204601F016FF00BF444804682F
:104E7000122040EA06223B462946204601F00BFF5D
:104E800000BF3F480468132040EA06223B462946FB
:104E9000204601F000FF00BF3BA1394800681EF02A
:104EA000ABFF00200346062201460090344800680C
:104EB00020F002FE00BF354800682BF089FFB0F5F6
:104EC000967F10D22D48006841F28831884251D92E
:104ED0002F48006850442E4908602E480068401C46
:104EE0002C49086046E02BF081FF284908602248E1
:104EF0000068C06A00684FF47A71B1FBF0F524488D
:104F0000006810B90120224908602248006808B9E9
:104F10002C4608E01F4800684FF47A7148431C494A
:104F20000968B0FBF1F400201949086019490860CC
:104F3000AC4200D92C461848006820441649086045
:104F400016480068401C154908602AF03FF8C0F177
:104F500064063346224612A1094800681EF0D8FFB5
:104F6000002003460622014600900548006820F014
:104F7000A3FD00BF00BF5AE6500000204C000020F7
:104F80005C000020AC7603083F00000060000020B9
:104F90006400002068000020580000205400002019
:104FA0002564204650530A2564252520435055008A
:104FB0003FBCBDE8C09F000010B50548006830B197
:104FC0000348006820F098FC00200149086010BDEB
:104FD000E400002010B51821014800F0E5FE10BDE6
:104FE000F83A00202DE9FF4F8BB004469A46199DF0
:104FF000BAF1000F11D11898B0F5807F0DD10020C3
:10500000208060800C98401E00B2A0800D98401E49
:1050100000B2E0800FB000F09CB9B5F9000040424A
:10502000189948430121C1EB202000B22080B5F936
:1050300002004042189948430121C1EB202000B2F0
:105040006080B5F900100C98401A18994843022165
:1050500001EB202000B2A080B5F902100D98401A93
:1050600018994843022101EB202000B2E080BAF1F8
:10507000000F14D120882988084400B2208060885D
:105080006988084400B26080A0882988084400B27A
:10509000A080E0886988084400B2E080BAE70A206E
:1050A0009AFBF0F00A900A98401C09900A9800EBCD
:1050B0008000AAEB400B0A9800B202F0BFFB0890F8
:1050C000099800B202F0BAFB07900A985A3000B271
:1050D00002F0B4FB069009985A3000B202F0AEFB21
:1050E0000590CBF10A0108984143079800FB0B108B
:1050F0000A2190FBF1F6CBF10A010698414305988D
:1051000000FB0B100A2190FBF1F776117F11B4F927
:105110000080B4F9029007FB08F006FB190029880B
:1051200001EBA02000B2ADF8100006FB08F007FB71
:105130000900698801EBA02000B2ADF81200B4F9B3
:105140000480B4F9029007FB08F006FB19002988D7
:1051500001EBA02000B2ADF80C0006FB08F007FB45
:105160000900698801EBA02000B2ADF80E00B4F987
:105170000080B4F9069007FB08F006FB19002988A7
:1051800001EBA02000B2ADF8080006FB08F007FB19
:105190000900698801EBA02000B2ADF80A00B4F95B
:1051A0000480B4F9069007FB08F006FB1900298873
:1051B00001EBA02000B2ADF8040006FB08F007FBED
:1051C0000900698801EBA02000B2ADF80600BDF926
:1051D0000800BDF91010884202DABDF9080001E0AC
:1051E000BDF91000BDF90410BDF90C20914202DA9E
:1051F000BDF9041001E0BDF90C1088420BDABDF9CD
:105200000800BDF91010884202DABDF908000DE06F
:10521000BDF910000AE0BDF90400BDF90C10884288
:1052200002DABDF9040001E0BDF90C002080BDF9EF
:105230000800BDF91010884202DDBDF9080001E048
:10524000BDF91000BDF90410BDF90C20914202DD3A
:10525000BDF9041001E0BDF90C1088420BDDBDF969
:105260000800BDF91010884202DDBDF908000DE00C
:10527000BDF910000AE0BDF90400BDF90C10884228
:1052800002DDBDF9040001E0BDF90C00A080BDF90C
:105290000A00BDF91210884202DABDF90A0001E0E5
:1052A000BDF91200BDF90610BDF90E20914202DAD7
:1052B000BDF9061001E0BDF90E1088420BDABDF908
:1052C0000A00BDF91210884202DABDF90A000DE0A9
:1052D000BDF912000AE0BDF90600BDF90E108842C2
:1052E00002DABDF9060001E0BDF90E006080BDF9EB
:1052F0000A00BDF91210884202DDBDF90A0001E082
:10530000BDF91200BDF90610BDF90E20914202DD73
:10531000BDF9061001E0BDF90E1088420BDDBDF9A4
:105320000A00BDF91210884202DDBDF90A000DE045
:10533000BDF912000AE0BDF90600BDF90E10884261
:1053400002DDBDF9060001E0BDF90E00E08000BFFE
:1053500060E630BCBDE8C08F2DE9F74F86B004464B
:1053600020680590B4F908100798A0EB0108B4F97B
:105370000A100898A0EB0109E089B0F5807F13D1ED
:10538000206B00FB08F0E16A01FB1901606A00EB89
:10539000A10BE06A00FB08F0216B01FB0901A06A88
:1053A00000EBA10004902FE0A08980B9A06B00FB66
:1053B00008F04FEA6018A06B00FB09F04FEA601993
:1053C000606A00EB080BA06A484404901CE0A06BE4
:1053D00000FB08F04FEA6018A06B00FB09F04FEAF1
:1053E0006019206B00FB08F0E16A01FB1901606A9B
:1053F00000EBA12BE06A00FB08F0216B01FB090127
:10540000A06A00EBA12004904FEA2B260498071213
:10541000B4F90400B04203DC002009B000F084B805
:10542000002E01DA0020F8E7B4F90600B84201DCEA
:105430000020F2E7002F01DA0020EEE73420005DC3
:10544000C0F3800050B33420005DC0F3400078B951
:105450000225B4F904007843684306FB050A059861
:1054600000EB0A012A4604F1140001F037F82CE0A1
:105470000325B4F904007843684306FB050A6A1E55
:10548000059800EB0A0104F1140001F027F80AEB7B
:105490000500401E0599095CA17516E04FF0000A51
:1054A0000025208A03463AB231B2019004F1180077
:1054B0001BF02AF90290BDF80800A0823AB231B27E
:1054C00004F118001BF080F8A0753420005D00F096
:1054D000010060B113480068029002980190A08A10
:1054E000BDF80410884201D1002096E700BFE07C9F
:1054F00008B9012091E70FFA8BF1A187049801B256
:10550000E18731B24020015339B242200153C4F83F
:1055100044A084F84850204600F009F8039003980E
:105520007BE70000B076030830BCBDE8C08F2DE9F2
:10553000F04F8DB00446D4F8009094F83C000C90E5
:1055400094F83E000B900C9870280BDA4FF0FF3562
:10555000B4F940002844002800DA00250C98803077
:10556000C7B213E00C9890280EDD0125B4F9400075
:105570002844B4F90410884200DB00250C98C0F1DF
:10558000FF008030C7B201E00025FF270B9870288C
:105590000CDA4FF0FF36B4F942003044002800DA4C
:1055A00000260B98803000F0FF0815E00B9890283B
:1055B0000FDD0126B4F942003044B4F906108842E8
:1055C00000DB00260B98C0F1FF00803000F0FF08E0
:1055D00002E000264FF0FF08A08A0A90A07D069006
:1055E00000200590049003903420005DC0F38000FB
:1055F00000285BD094F84800626C00FB052000EBAB
:105600000901022209A800F075FFA28894F8480059
:1056100012FB00F2606C02FB060000EB09010222A3
:1056200008A800F067FFA28894F8480012FB00F277
:10563000606C02FB060294F8480000FB052000EBBA
:105640000901022207A800F055FF3420005DC0F3D5
:10565000400000287ED094F84800616C00FB0511E2
:105660000844401E19F800000590A18894F84800ED
:1056700011FB00F1606C01FB060194F8480008443E
:10568000401E19F800000490A18894F8480011FB0E
:1056900000F1606C01FB060194F8480000FB051165
:1056A0000844401E19F80000039053E0208A00903F
:1056B000B4F942204020005B284401B204F11800F4
:1056C000009B1BF021F80990208A00904220005B8B
:1056D000304402B2B4F9401004F11800009B1BF0F2
:1056E00013F80890208A00904220005B304402B2F8
:1056F0004020005B284401B204F11800009B1BF01D
:1057000003F807903420005DC0F3400010B3B4F9F3
:1057100042204020005B284401B204F118001AF036
:1057200053FF05904220005B304402B2B4F94010B0
:1057300004F118001AF048FF04904220005B304446
:1057400002B24020005B284401B204F118001AF0B4
:105750003BFF0390BA46BB463420005DC0F34000D7
:10576000E0B306987843C7F1FF0C059B03FB0C00E0
:10577000C0F3072104987843C7F1FF0C039B03FB98
:105780000C00C0F3072201FB08F0C8F1FF0302FB85
:105790000300030AA375022905DC022A03DC0020AA
:1057A0000DB000F060B8022901DC4FF00008022AB9
:1057B00001DC4FF0FF080698022801DC4FF0000AD8
:1057C0000598022801DC4FF0FF0A0498022801DC4A
:1057D0004FF0000B0398022803DC00E002E04FF0DA
:1057E000FF0B03E0BA46BB46FF21A175BAF1000FDB
:1057F00002D1099802900BE0BAF1FF0F02D10A988A
:10580000029005E05246DDE9091014F03EFF0290D7
:10581000BBF1000F02D1079801900BE0BBF1FF0F25
:1058200002D10898019005E05A46DDE9071014F00E
:105830002CFF0190B8F1000F03D1BDF80400A08245
:105840000FE0B8F1FF0F03D1BDF80800A08208E017
:105850004246DDE9011014F018FF0090BDF8000089
:10586000A08201209CE730BCBDE8C08F2DE9F05F2D
:105870000446B4F9080001026162B4F90A000102A9
:10588000A162B4F90C000A2190FBF1F56F1CB4F988
:105890000C0005EB8501A0EB4106684200B201F067
:1058A000CDFF8046784200B201F0C8FF8146C5F1C5
:1058B0005A0000B201F0C2FF8246C7F15A0000B29E
:1058C00001F0BCFF8346C6F10A0000FB08F009FBAB
:1058D00006000A2190FBF1F1E162C6F10A0000FB2B
:1058E0000AF00BFB06000A2190FBF1F12163E06A4C
:1058F0004111E162206B41112163A07C1BF07FF814
:105900003421095D60F3000134200155A07C1BF0B7
:1059100059F83421095D60F3410134200155A07C20
:10592000042805D0A07C052802D0A07C062807D139
:105930003420005D20F00400001D3421085505E0EE
:105940003420005D20F004013420015521682162DB
:10595000A06920F0E000A061A17CA06961F30400CF
:10596000A061A188A06961F39420A061E188A06989
:1059700061F35F50A061E08900EBD071491001F53F
:10598000001191FBF0F2A263FF21A175208AA08291
:1059900000F000B830BCBDE8C09F00002DE9F35F07
:1059A000074600255A48008810B9002000F0B6B814
:1059B00058480668002414E004EBC40006EB80009D
:1059C000006A554988420ADD04EBC40006EB8000FA
:1059D000006A401E04EBC40106EB81010862601CF2
:1059E00084B24B4800888442E6DB002442E04FF05A
:1059F000000A04EBC40106EB810148681CF0F1FBCE
:105A00008146B9F1000F12D104EBC40006EB80000F
:105A10004068B84219D104EBC40006EB800000894D
:105A2000BDF80410884210D14FF0010A0DE0B9F121
:105A3000010F0AD104EBC40106EB81014868394625
:105A4000FAF72DFC08B94FF0010ABAF1000F0FD098
:105A500004EBC40006EB8005296A686908442862E3
:105A6000286AB0F57A7F02DD4FF47A70286205E08B
:105A7000601C84B2264800888442B8DB00BF0DB1A8
:105A8000284693E7354601240DE004EBC40006EBFD
:105A90008000006A296A884203DA04EBC40006EB3E
:105AA0008005601C84B21A4800888442EDDB686877
:105AB00010B128461BF0BAFB2BF098F98346002062
:105AC000686139462846019A1BF01EFC8046B8F1F1
:105AD000000F0FD128461BF0A9FB2021284600F01B
